:0400000027C0FECF48
:10000400FDCFFCCFFBCFFACFF9CFF8CFF7CFF6CFA8
:10001400F5CFF4CFF3CF63C0F1CFF0CFEFCFEECF76
:10002400EDCFECCFEBCFEACFE9CFE8CFE7CFE6CF08
:1000340001000100B7813DAD8BAEBE85BFAF0200AC
:10004400090034000A00A40238000000F894EE27E6
:10005400EFBBF1E0F5BFE5BF8DE0A2E0BB27ED9378
:100064008A95E9F780E094E0A0E0B1E0ED93019790
:10007400E9F7E2E4F0E085919591009761F0A591AC
:10008400B59105901590BF01F00105900D9201976F
:10009400E1F7FB01F0CFE0E0EEBBEFEFEDBFE4E012
:1000A400EEBFC0E0D2E0BFC1AA93E881E0937C0038
:1000B40085E28A95F1F7E0917A00E064E0937A00B2
:1000C400E0917A00E071E1F3E0917A00E061E0937D
:1000D4007A00E0917800F0917900219608950A92CF
:1000E4001A92FA926A937A938A939A93AA93BA93F6
:1000F400EA93FA93EFB7EA93E9EAE0938500EAE931
:10010400E0938400D3D2E991EFBFF991E991B991D9
:10011400A9919991899179916991F990199009908E
:1001240018950CD5A3E0C0DF8F01083EE3E01E075D
:1001340018F008EE13E006C00536E0E01E0710F4E0
:1001440004E610E0F801E456F04066277727DBD395
:10015400A0E0B0E08FEA93E404D4DF01CB01E0E057
:10016400F0E061E674E44BD495D38F01E7C1EF97D7
:100174006597E4D410E000E0EA2DA4E0B2E0F0E0FA
:10018400A4D4EA0FFB1FFF93EF93E1E0EA93E7E1C6
:10019400EA93A3E0D6D1AF91BF91BDD4EA2DA4E5F3
:1001A400B2E0F0E092D4EA0FFB1FFF93EF93E1E09B
:1001B400EA93E6E1EA93A3E0C4D1AF91BF91ABD453
:1001C40010E01431A0F4E12FF0E0DE0116967DD4A6
:1001D400EA0FFB1F0F01E12FA4E0B2E0F0E075D4B9
:1001E400AE0FBF1F92D4D00196D41F5FEACF10E0A8
:1001F400143108F04CC0012F043108F046C0E12F3F
:10020400F0E0DE01169661D4AE0FBF1F7ED47F935B
:100214006F93FF93EF93E02FF0E0DE01169655D431
:10022400AE0FBF1F72D4AF91BF918F919F917DD4B8
:1002340050F5E12FF0E0DE01169647D4AE0FBF1F54
:1002440064D4EA83FB836C837D83E12FF0E0DE01D9
:1002540016963BD4EA0FFB1F0F01E02FF0E0DE01FE
:10026400169633D4AE0FBF1F50D4D00154D4E02F10
:10027400F0E0DE01169629D4EA0FFB1FAA81BB81A8
:100284008C819D814DD40F5FB7CF1F5FB1CFE0E06C
:10029400EA83EB83EC83ED8315E01F3098F4E12FC0
:1002A400F0E0DE01169611D4AE0FBF1F2ED4AA8142
:1002B400BB818C819D81E8D3EA83FB836C837D833E
:1002C4001F5FEBCFEA81FB816C817D811AD3DF0153
:1002D400CB01E0E0F0E060E271E491D3DBD25E2E8A
:1002E4006F2E509200026092010210E01431A0F4CB
:1002F400E12FF0E0DE011696E8D3EA0FFB1F0F01B1
:10030400E12FA4E5B2E0F0E0E0D3AE0FBF1FFDD3D0
:10031400D00101D41F5FEACF10E0143108F04CC0C3
:10032400012F043108F046C0E12FF0E0DE011696FB
:10033400CCD3AE0FBF1FE9D37F936F93FF93EF939B
:10034400E02FF0E0DE011696C0D3AE0FBF1FDDD361
:10035400AF91BF918F919F91E8D350F5E12FF0E0D9
:10036400DE011696B2D3AE0FBF1FCFD3EA83FB8351
:100374006C837D83E12FF0E0DE011696A6D3EA0FAD
:10038400FB1F0F01E02FF0E0DE0116969ED3AE0FA7
:10039400BF1FBBD3D001BFD3E02FF0E0DE01169620
:1003A40094D3EA0FFB1FAA81BB818C819D81B8D3B2
:1003B4000F5FB7CF1F5FB1CFE0E0EA83EB83EC833D
:1003C400ED8315E01F3098F4E12FF0E0DE0116967E
:1003D4007CD3AE0FBF1F99D3AA81BB818C819D8131
:1003E40053D3EA83FB836C837D831F5FEBCFEA8166
:1003F400FB816C817D8185D2DF01CB01E0E0F0E0FF
:1004040060E271E4FCD246D27E2E8F2E70920002FE
:1004140080920102A394E4E1AE1608F0AA2495D3D5
:10042400EF9667960895E0E8E0936100E0E0E093DA
:100434006100E5E1E4B9E0E0E5B9E1E2E7B9E0E073
:10044400E8B9E0EAEAB9E0E0EBB9E4BDE5BDE6BD50
:10045400E7BDE8BDE0938000E1E0E0938100E9EAD4
:10046400E0938500EAE9E0938400E0E0E09387000C
:10047400E0938600E0938900E0938800E0938B008A
:10048400E0938A00E093B600E093B000E093B100FB
:10049400E093B200E093B300E093B400E0936E0005
:1004A400E0936F00E0937000E0936900EDBBE0938C
:1004B4006800E093C100E0E8E0BFE0E0E0937F0083
:1004C400E0937E00E0937C00E4E8E0937A00E0E0CF
:1004D400E0937B00ECBDE093BC0049DE22DEFDCF5F
:1004E400FFCFAA932BD30A8110E0183090F4E02FA9
:1004F400E078E03811F45D9A01C05D985F9A88EB6A
:100504008A95F1F75F9888EB8A95F1F7000F1F5FE2
:10051400ECCF1BD390C112D300E010E0183068F484
:10052400000F5F9A88EB8A95F1F74E990F5F5F98F9
:1005340088EB8A95F1F71F5FF1CFE02F09911991AC
:100544000895AA9328971A9310E0143050F4E12FD9
:10055400F0E0DE011596AE0FBF1FE0E0EC931F5FE5
:10056400F4CFEB85F0E0E130A0E0FA0721F428981D
:10057400299A299A0FC0E230A0E0FA0721F4289AB8
:100584002998299A07C0E330A0E0FA0719F4289AB9
:10059400299A299884E191E00197F1F7EA85EF73AC
:1005A400EA87AA859EDF84E191E00197F1F710E0E4
:1005B400E9851E1770F4E12FF0E0DE011596EA0FCD
:1005C400FB1FFF93EF93A7DFAF91BF91EC931F5FE6
:1005D400EFCF84E191E00197F1F7289A299A299ABB
:1005E400E0E0E983EA83EB83EC8310E0E9851E17FE
:1005F400F0F4A981BA818B819C81E8E05AD2E98325
:10060400FA836B837C83E12FF0E0DE011596AE0F55
:10061400BF1FEC91F0E0A981BA818B819C815AD2F1
:1006240033D2E983FA836B837C831F5FDFCFE98155
:10063400FA816B817C8118812C960895AA93249762
:100644001A9310E0143050F4E12FF0E0DE0111961B
:10065400AE0FBF1FE0E0EC931F5FF4CFEF81E9839F
:10066400EE81EA83ED81EB8310E0E885F0E03197D9
:10067400A12FB0E0AE17BF0764F4E12FF0E0DE0174
:100684001196AE0FBF1FEC91EA93A0E0BBD01F5FA1
:10069400ECCFE12FF0E0DE011196AE0FBF1FEC911D
:1006A400EA93A1E0AFD018812996089543D251E08E
:1006B40010E000E030E09394E92DE150A52FF1D152
:1006C4005E2FE8E0E91518F4E1E09E2E51E0A091D8
:1006D4000002B0910102E8EEF3E001D22E2FF0E027
:1006E400EC55FD4F1081E52FE12309F03160A09115
:1006F4000002B0910102E4E6F0E0F1D1DF01EAE0AA
:10070400F0E000D22E2FF0E0EC55FD4F1081E52FE4
:10071400E12309F03260A0910002B0910102EAE005
:10072400F0E0DDD1DF01EAE0F0E0ECD12E2FF0E0E3
:10073400EC55FD4F10811064E52FE12309F034607E
:10074400A0910002B0910102EAE0F0E0DBD12E2F8B
:10075400F0E0EC55FD4F1081E52FE12309F03860FE
:10076400A0910202B0910302E8EEF3E0B8D12E2F7B
:10077400F0E0EC55FD4F1081E52FE12309F03068DE
:10078400A0910202B0910302E4E6F0E0A8D1DF01F7
:10079400EAE0F0E0B7D12E2FF0E0EC55FD4F1081E8
:1007A4001064E52FE12309F03064A0910202B091B6
:1007B4000302EAE0F0E093D1DF01EAE0F0E0A2D145
:1007C4002E2FF0E0EC55FD4F1081E52FE12309F0C9
:1007D4003062A0910202B0910302EAE0F0E092D10B
:1007E4002E2FF0E0EC55FD4F1081E52FE12309F0A9
:1007F4003061E2E0EA935A933A93A02F1FDFA1D12C
:1008040026960895AA931A9310E0183070F4EA819A
:10081400E078E03811F42B9A01C02B98EA81EE0FAE
:10082400EA832D9A2D981F5FF0CFE981E03011F013
:10083400299A2998188123960895552342F450380B
:1008440011F4E0FF04C03196691F791F6BF050E882
:10085400572711F45F9373C05F3F31F0660F000CAC
:1008640057956795752F08955F9300200AF073C01C
:100874006CC050E8192E1522880F991F9527550F23
:10088400879550E8072E0522660F771F7527550FA9
:1008940067950895689401C0E8945F93F2DF703817
:1008A40018F07F3F08F44BC056E1571BAAF451954A
:1008B40058300EF4593030F0EFEFFFEF6FEF7FE771
:1008C40077F91AC077275523B9F0EE0FFF1F661F7B
:1008D400771F5A95D1F710C07727583028F0EF2F9B
:1008E400F62F672F5850F9CF552331F07695679539
:1008F400F795E7955A95D1F700200AF4CAD05F918D
:100904000895689401C0E894309760407040B1F055
:10091400002426F0772312F40094BBD0172E7EE136
:10092400112032F07A95EE0FFF1F661F111CF9CFCC
:10093400EF2FF62F612D5F938ADF5F910895EE27E5
:10094400FF27662777275F910895EFEFFFEF6FE7A3
:100954007FEF5F910895EFEFFFEF6FE77FE75F9120
:1009640008955F9386DF703851F3903841F3012482
:100974000894791F23F41CF300203AF3ECCF0F9270
:100984001F932F933F934F93112722279927689FF3
:10099400A0018F9F302D410D591F6B9F300D411DBC
:1009A400591F8E9F27D0BF9F25D06A9F23D0BE9FFB
:1009B4001DD0AF9F1BD0AE9F110D291F391F491F9A
:1009C400591FE32FF42F652F522F4F913F912F91F1
:1009D4001F910F9066232AF0550FEE1FFF1F661F0D
:1009E40002C073954BF229DF5F910895100D211D0C
:1009F400391F02C0200D311D491F591F08955F93EF
:100A040038DF703821F411200AF49FCFA4CF903836
:100A140009F495CF01240894970B1BF4D4F3002018
:100A2400F3CF792F1F932F933F934F9311241127C3
:100A3400222733274427552790E2AE17BF0786079E
:100A4400410730F0AE1BBF0B860B410B089401C06D
:100A54008894551F221F331F111CAA1FBB1F881FF8
:100A6400441F9A9551F7F901612D4F913F912F91B0
:100A74001F91662332F0550FEE1FFF1F661F7A95F4
:100A840043F2DBDE5F910895EA0FFB1F681F791FB5
:100A94000895F09560957095E195FF4F6F4F7F4FE6
:100AA4000895EE230E2EEA2F19F0EE0F0A94E9F7BB
:100AB4000895EE230E2EFD01BC0131F0EE0FFF1F51
:100AC400661F771F0A94D1F70895EE0FFF1FEE0FEC
:100AD400FF1F08956F2F660F660B762F089500246D
:100AE400112490E1AA0FBB1F001C111C0E1A1F0A2F
:100AF40018F40E0E1F1E01C0A1609A9599F7FD010E
:100B0400D0010895ECDFFD010895ED91FD916D9103
:100B14007C9113970895ED93FD936D937C930895C1
:100B2400A083B183828393830895EA17FB07680740
:100B3400790708955A934A933A932A931A930A93F6
:100B440008955D814C813B812A8119810881089532
:00000001FF
