:0600000029C0FECFFDCF78
:10000600FCCFFBCFFACFF9CFF8CFF7CF6AC0F5CF49
:10001600F4CFF3CFF2CFF1CFF0CFEFCFEECFEDCFDE
:10002600ECCFEBCFEACFE9CFE8CFE7CFE6CF0001C1
:10003600000000000100EE88B6BCD87C7EA8FEFC5D
:1000460005000A0034000A00F6023C000000F8949D
:10005600EE27EFBBF1E0F5BFE5BF8DE0A2E0BB27E1
:10006600ED938A95E9F780E094E0A0E0B1E0ED93A6
:100076000197E9F7E6E4F0E085919591009761F044
:10008600A591B59105901590BF01F00105900D92CF
:100096000197E1F7FB01F0CFE0E0EEBBEFEFEDBF3C
:1000A600E4E0EEBFC0E0D2E01DC2AA93E881E06CB6
:1000B600E0937C0083E48A95F1F7E0917A00E064AE
:1000C600E0937A00E0917A00E071E1F3E0917A0042
:1000D600E061E0937A00E0917800F0917900219652
:1000E60008950A921A92FA926A937A938A939A9345
:1000F600AA93BA93EA93FA93EFB7EA93EEE7E093FB
:10010600B200E8ECF0E0DE16EF0620F4E1E0F0E005
:10011600DE0EEF1E70D39394E8ECE91508F49924EB
:10012600F29AE991EFBFF991E991B991A991999163
:10013600899179916991F990199009901895AA93E6
:100146001A93A981EFEFEA9FF001DF01E4E6F0E000
:10015600A9D51E2FA981A23030F4E0E0E0938900F2
:10016600E093880005C0E0E0E093890010938800E2
:1001760019C0AA931A93A981EFEFEA9FF001DF0154
:10018600E4E6F0E08FD51E2FA981A23030F4E0E03E
:10019600E0938B00E0938A0005C0E0E0E0938B00DB
:1001A60010938A00188122960895D0D5A1E07DDFAC
:1001B6008F01D80188279927E4E6F0E060E070E037
:1001C6003ED5DF01CB01EFEFF3E060E070E06FD5E5
:1001D600CE2EAC2DCEDFAC2DB2DF55C2EF97ED970C
:1001E600B5D510E000E0EA2DA4E0B2E0F0E01DD5C0
:1001F600EA0FFB1FFF93EF93E1E0EA93E7E1EA934F
:10020600A3E044D2AF91BF918ED5AAE0B0E005D469
:1002160010E01E31A0F4E12FF0E0DE01169605D5C0
:10022600EA0FFB1F0F01E12FA4E0B2E0F0E0FDD4DE
:10023600AE0FBF1F72D5D00176D51F5FEACF10E093
:100246001E3108F04CC0012F0E3108F046C0E12FD8
:10025600F0E0DE011696E9D4AE0FBF1F5ED57F93A0
:100266006F93FF93EF93E02FF0E0DE011696DDD457
:10027600AE0FBF1F52D5AF91BF918F919F915DD5A4
:1002860050F5E12FF0E0DE011696CFD4AE0FBF1F7A
:1002960044D5EA83FB836C837D83E12FF0E0DE01A6
:1002A6001696C3D4EA0FFB1F0F01E02FF0E0DE0124
:1002B6001696BBD4AE0FBF1F30D5D00134D5E02F74
:1002C600F0E0DE011696B1D4EA0FFB1FAA81BB81CE
:1002D6008C819D812DD50F5FB7CF1F5FB1CFE0E039
:1002E600EA83EB83EC83ED8317E0173198F4E12F73
:1002F600F0E0DE01169699D4AE0FBF1F0ED5AA8187
:10030600BB818C819D816CD4EA83FB836C837D8366
:100316001F5FEBCFAA81BB818C819D81E0E1F0E07C
:1003260060E070E0C4D4EA83FB836C837D83E3D30F
:10033600DF01CB01E0E0F4E767E476E40CD4A4D374
:100346005E2E6F2EE8ECF0E0DE16EF0620F05092FF
:10035600000260920102EA2DACE7B2E0F0E065D45B
:10036600EA0FFB1FFF93EF93E1E0EA93E6E1EA93DE
:10037600A3E08CD1AF91BF91D6D4AAE0B0E04DD323
:1003860010E01E31A0F4E12FF0E0DE0116964DD408
:10039600EA0FFB1F0F01E12FACE7B2E0F0E045D416
:1003A600AE0FBF1FBAD4D001BED41F5FEACF10E094
:1003B6001E3108F04CC0012F0E3108F046C0E12F67
:1003C600F0E0DE01169631D4AE0FBF1FA6D47F93A0
:1003D6006F93FF93EF93E02FF0E0DE01169625D49E
:1003E600AE0FBF1F9AD4AF91BF918F919F91A5D4A5
:1003F60050F5E12FF0E0DE01169617D4AE0FBF1FC1
:100406008CD4EA83FB836C837D83E12FF0E0DE01ED
:1004160016960BD4EA0FFB1F0F01E02FF0E0DE016A
:10042600169603D4AE0FBF1F78D4D0017CD4E02F2C
:10043600F0E0DE011696F9D3EA0FFB1FAA81BB8115
:100446008C819D8175D40F5FB7CF1F5FB1CFE0E080
:10045600EA83EB83EC83ED8317E0173198F4E12F01
:10046600F0E0DE011696E1D3AE0FBF1F56D4AA8187
:10047600BB818C819D81B4D3EA83FB836C837D83AE
:100486001F5FEBCFAA81BB818C819D81E0E1F0E00B
:1004960060E070E00CD4EA83FB836C837D832BD30E
:1004A600DF01CB01E0E0F0E86DE074E454D3ECD278
:1004B6007E2E8F2EE8ECF0E0DE16EF0610F0DD243F
:1004C600EE24E6E2F2E0E715F80510F4F19A01C031
:1004D600F198A394EEE1AE1608F0AA243ED4EF9666
:1004E600EF960895E0E8E0936100E0E0E0936100B4
:1004F600EFE3E4B9E0E0E5B9E1E2E7B9E0E0E8B965
:10050600E0EAEAB9E0E0EBB9E4BDE5BDE6BDE7BD8A
:10051600E8BDE1EBE0938000E1E0E0938100E0E0FC
:10052600E0938500E0938400E0938700E0938600E3
:10053600E0938900E0938800E0938B00E0938A00C3
:10054600E093B600E093B000E6E0E093B100EEE79A
:10055600E093B200E0E0E093B300E093B400E093F0
:100566006E00E0936F00E1E0E0937000E0E0E0935E
:100576006900EDBBE0936800E093C100E0E8E0BFEE
:10058600E0E0E0937F00E0937E00E0ECE0937C0007
:10059600E4E8E0937A00E0E0E0937B00ECBDE093D2
:1005A600BC007894AA24EEE1AE16D0F4EA2DA4E0BD
:1005B600B2E0F0E03AD3AE0FBF1FE0E0F0E060E05B
:1005C60070E0B1D3EA2DACE7B2E0F0E02ED3AE0F87
:1005D600BF1FE0E0F0E060E070E0A5D3A394E3CFB6
:1005E600AA24A8EBBBE019D2459AA4E6B0E015D23E
:1005F6004598A4E6B0E011D2459AA4E6B0E00DD243
:100606004598F29B02C0F298E9DDCFDDF19B07C069
:10061600E4E69E1610F4459A01C0459801C0459837
:10062600F0CFFFCFAA9392D30A8110E01830A0F43E
:10063600E02FE078E03811F45D9A01C05D985F9A8A
:100646008AEF90E00197F1F75F988AEF90E00197C3
:10065600F1F7000F1F5FEACF80D3DDC177D300E04B
:1006660010E0183078F4000F5F9A8AEF90E0019757
:10067600F1F74E990F5F5F988AEF90E00197F1F7D7
:100686001F5FEFCFE02F099119910895AA9328973C
:100696001A9310E0143050F4E12FF0E0DE011596C5
:1006A600AE0FBF1FE0E0EC931F5FF4CFEB85F0E0E9
:1006B600E130A0E0FA0721F42898599A599A0FC018
:1006C600E230A0E0FA0721F4289A5998599A07C00F
:1006D600E330A0E0FA0719F4289A599A599884EF5A
:1006E60091E00197F1F7EA85EF73EA87AA859ADF29
:1006F60084EF91E00197F1F710E0E9851E1770F499
:10070600E12FF0E0DE011596EA0FFB1FFF93EF9352
:10071600A5DFAF91BF91EC931F5FEFCF84EF91E020
:100726000197F1F7289A599A599AE0E0E983EA8302
:10073600EB83EC8310E0E9851E17F0F4A981BA81FA
:100746008B819C81E8E065D2E983FA836B837C83A5
:10075600E12FF0E0DE011596AE0FBF1FEC91F0E041
:10076600A981BA818B819C8165D23AD2E983FA83C9
:100776006B837C831F5FDFCFE981FA816B817C818C
:1007860018812C960895AA9324971A9310E0143092
:1007960050F4E12FF0E0DE011196AE0FBF1FE0E04E
:1007A600EC931F5FF4CFEF81E983EE81EA83ED815D
:1007B600EB8310E0E885F0E03197A12FB0E0AE17AB
:1007C600BF0764F4E12FF0E0DE011196AE0FBF1F04
:1007D600EC91EA93A0E006D11F5FECCFE12FF0E0A9
:1007E600DE011196AE0FBF1FEC91EA93A1E0FAD09D
:1007F600188129960895A6D251E010E000E030E075
:10080600B394EB2DE150A52FFCD15E2FE8E0EB155C
:1008160018F4E1E0BE2E51E0A0910002B091010271
:10082600E8EEF3E02CD22E2FF0E0EA50FD4F1081D7
:10083600E52FE12309F03062A0910002B091010298
:10084600E4E6F0E01CD2DF01EAE0F0E055D22E2F1C
:10085600F0E0EA50FD4F1081E52FE12309F0306406
:10086600A0910002B0910102EAE0F0E008D2DF01B7
:10087600EAE0F0E041D22E2FF0E0EA50FD4F108181
:100886001160E52FE12309F03068A0910002B091D4
:100896000102EAE0F0E030D22E2FF0E0EA50FD4F00
:1008A6001081E52FE12309F03061A0910202B09199
:1008B6000302E8EEF3E0E3D12E2FF0E0EA50FD4F1D
:1008C6001081F19B08C0A091F402B091F502A83CFA
:1008D600E0E0BE0708F002C010910003E52FE12317
:1008E60009F03860A0910202B0910302E4E6F0E05C
:1008F600C6D1DF01EAE0F0E0FFD12E2FF0E0EA50AA
:10090600FD4F10811160F19B08C0A091F402B091D7
:10091600F502A83CE0E0BE0708F002C01091000313
:10092600E52FE12309F03460A0910202B0910302A1
:10093600EAE0F0E0A4D1DF01EAE0F0E0DDD12E2F1D
:10094600F0E0EA50FD4F1081F19B08C0A091F4023F
:10095600B091F502A83CE0E0BE0708F002C0109195
:100966000003E52FE12309F03260A0910202B09165
:100976000302EAE0F0E0C0D12E2FF0E0EA50FD4F8E
:100986001081F19B08C0A091F402B091F502A83C39
:10099600E0E0BE0708F002C010910003E52FE12356
:1009A60009F03160EFEFE51B5E2FE2E0EA933A9340
:1009B6005A93A02FE8DEA4EFB2E0ED91FD913196B7
:1009C600FE93EE93A091F402B091F502A139E1E015
:1009D600BE0728F0E0E0E093F402E093F502B9D117
:1009E60026960895AA931A9310E0183070F4EA81B7
:1009F600E078E03811F42B9A01C02B98EA81EE0FCB
:100A0600EA832D9A2D981F5FF0CFE981E03011F02F
:100A1600409A4098188123960895109639F088E8F0
:100A260093E10197F1F7A8951197C9F70895552312
:100A360042F4503811F4E0FF04C03196691F791F63
:100A46006BF050E8572711F45F9373C05F3F31F0A6
:100A5600660F000C57956795752F08955F930020D4
:100A66000AF073C06CC050E8192E1522880F991F22
:100A76009527550F879550E8072E0522660F771F95
:100A86007527550F67950895689401C0E8945F939C
:100A9600F2DF703818F07F3F08F44BC056E1571B61
:100AA600AAF4519558300EF4593030F0EFEFFFEFBD
:100AB6006FEF7FE777F91AC077275523B9F0EE0F66
:100AC600FF1F661F771F5A95D1F710C0772758303A
:100AD60028F0EF2FF62F672F5850F9CF552331F016
:100AE60076956795F795E7955A95D1F700200AF41C
:100AF60080D05F910895689401C0E8943097604073
:100B06007040B1F0002426F0772312F4009471D0DF
:100B1600172E7EE1112032F07A95EE0FFF1F661F29
:100B2600111CF9CFEF2FF62F612D5F938ADF5F91AE
:100B36000895EE27FF27662777275F910895EFEF41
:100B4600FFEF6FE77FEF5F910895EFEFFFEF6FE73E
:100B56007FE75F9108955F9386DF703821F4112057
:100B66000AF4EDCFF2CF903809F4E3CF01240894CC
:100B7600970B1BF4D4F30020F3CF792F1F932F93F9
:100B86003F934F93112411272227332744275527B4
:100B960090E2AE17BF078607410730F0AE1BBF0BCA
:100BA600860B410B089401C08894551F221F331FE2
:100BB600111CAA1FBB1F881F441F9A9551F7F901E4
:100BC600612D4F913F912F911F91662332F0550F62
:100BD600EE1FFF1F661F7A9543F229DF5F91089586
:100BE600EA0FFB1F681F791F0895F195E195F04004
:100BF6000895F09560957095E195FF4F6F4F7F4F83
:100C06000895EE230E2EEA2F19F0EE0F0A94E9F757
:100C16000895EE230E2EFD01BC0131F0EE0FFF1FED
:100C2600661F771F0A94D1F70895EE0FFF1FEE0F88
:100C3600FF1F08956F2F660F660B762F08957A9F14
:100C4600702D6B9F700DF89F700DE99F700D6A9F58
:100C5600602D710DFB9F600D711DE89F600D711D6C
:100C66008827FA9FF02D610D781FEB9FF00D611D0F
:100C7600781FEA9FE02DF10D681F781F0895002464
:100C8600112490E1AA0FBB1F001C111C0E1A1F0A8B
:100C960018F40E0E1F1E01C0A1609A9599F7FD016A
:100CA600D00108952CD0EBDF0EF49FDF08953F931B
:100CB6004F935F93002411244427552730E2AA0F4F
:100CC600BB1F881F991F001C111C441F551F0E1A9D
:100CD6001F0A460B570B28F40E0E1F1E461F571FE2
:100CE60001C0A1603A9559F7FD01BC01D001CA01C6
:100CF6005F914F913F910895C2DFFD010895E894F9
:100D0600F7FF02C072DF6894B7FF06C0A095B095E2
:100D1600119600F8039400FA0895ED91FD916D91F6
:100D26007C9113970895ED93FD936D937C930895AD
:100D3600A083B183828393830895EA17FB0768072C
:100D4600790708955A934A933A932A931A930A93E2
:100D560008955D814C813B812A811981088108951E
:00000001FF
