:080000002DC0FECFFDCFFCCFA7
:10000800FBCFFACFF9CFF8CFF7CF6EC0F5CFF4CF4B
:10001800F3CFF2CFF1CFF0CFEFCFEECFEDCFECCFE4
:10002800EBCFEACFE9CFE8CFE7CFE6CF000000007B
:10003800000001000100EE88B6BCD87C7EA8FEFC5A
:1000480005000A0034000100F4023C000A00F7022F
:100058003E000000F894EE27EFBBF1E0F5BFE5BFE6
:100068008DE0A2E0BB27ED938A95E9F780E094E064
:10007800A0E0B1E0ED930197E9F7E8E4F0E08591BD
:100088009591009761F0A591B59105901590BF01E4
:10009800F00105900D920197E1F7FB01F0CFE0E048
:1000A800EEBBEFEFEDBFE4E0EEBFC0E0D2E019C277
:1000B800AA93E881E06CE0937C0080E58A95F1F7EB
:1000C800E0917A00E064E0937A00E0917A00E071D0
:1000D800E1F3E0917A00E061E0937A00E091780042
:1000E800F0917900219608950A921A92FA926A93E9
:1000F8007A938A939A93AA93BA93EA93FA93EFB767
:10010800EA93EEE7E093B200E8ECF0E0DE16EF06E3
:1001180020F4E1E0F0E0DE0EEF1ED3D39394E8EC98
:10012800E91508F49924F29AE991EFBFF991E99158
:10013800B991A9919991899179916991F9901990B9
:1001480009901895BA93AA93A881B981129720F4B7
:10015800E0E0E093890004C0E981E0938900E88148
:10016800E093880010C0BA93AA93A881B981129726
:1001780020F4E0E0E0938B0004C0E981E0938B0079
:10018800E881E0938A002296089568D6A1E090DF7E
:100198008F01D80188279927EFEFF0E060E070E041
:1001A800E9D5DF01CB01EFEFF3E060E070E015D6B1
:1001B800BE2ECF2EAB2DBC2DD6DFAB2DBC2DC2DF76
:1001C8006AC2EF97ED974AD610E000E0EA2DA4E066
:1001D800B2E0F0E0C5D5EA0FFB1FFF93EF93E1E033
:1001E800EA93E7E1EA93A3E0A2D2AF91BF9123D6C5
:1001F800AAE0B0E0B1D410E01E31A0F4E12FF0E0A5
:10020800DE011696ADD5EA0FFB1F0F01E12FA4E022
:10021800B2E0F0E0A5D5AE0FBF1F07D6D0010BD6D0
:100228001F5FEACF10E01E3108F04CC0012F0E31DD
:1002380008F046C0E12FF0E0DE01169691D5AE0F2A
:10024800BF1FF3D57F936F93FF93EF93E02FF0E0F9
:10025800DE01169685D5AE0FBF1FE7D5AF91BF91CA
:100268008F919F91F2D550F5E12FF0E0DE011696BF
:1002780077D5AE0FBF1FD9D5EA83FB836C837D8307
:10028800E12FF0E0DE0116966BD5EA0FFB1F0F0198
:10029800E02FF0E0DE01169663D5AE0FBF1FC5D57F
:1002A800D001C9D5E02FF0E0DE01169659D5EA0F46
:1002B800FB1FAA81BB818C819D81C2D50F5FB7CFFF
:1002C8001F5FB1CFE0E0EA83EB83EC83ED8317E0B7
:1002D800173198F4E12FF0E0DE01169641D5AE0F04
:1002E800BF1FA3D5AA81BB818C819D8118D5EA83C4
:1002F800FB836C837D831F5FEBCFAA81BB818C81DD
:100308009D81E0E1F0E060E070E067D5EA83FB837F
:100318006C837D838FD4DF01CB01E0E0F8EE6CEBDA
:1003280075E4B8D450D45E2E6F2EE8ECF0E0DE16FB
:10033800EF0620F05092000260920102ECE7F1E033
:10034800E515F60510F4F09A01C0F098EA2DACE72F
:10035800B2E0F0E005D5EA0FFB1FFF93EF93E1E071
:10036800EA93E6E1EA93A3E0E2D1AF91BF9163D5C6
:10037800AAE0B0E0F1D310E01E31A0F4E12FF0E0E4
:10038800DE011696EDD4EA0FFB1F0F01E12FACE753
:10039800B2E0F0E0E5D4AE0FBF1F47D5D0014BD592
:1003A8001F5FEACF10E01E3108F04CC0012F0E315C
:1003B80008F046C0E12FF0E0DE011696D1D4AE0F6A
:1003C800BF1F33D57F936F93FF93EF93E02FF0E038
:1003D800DE011696C5D4AE0FBF1F27D5AF91BF91CA
:1003E8008F919F9132D550F5E12FF0E0DE011696FE
:1003F800B7D4AE0FBF1F19D5EA83FB836C837D8307
:10040800E12FF0E0DE011696ABD4EA0FFB1F0F01D7
:10041800E02FF0E0DE011696A3D4AE0FBF1F05D57E
:10042800D00109D5E02FF0E0DE01169699D4EA0F45
:10043800FB1FAA81BB818C819D8102D50F5FB7CF3D
:100448001F5FB1CFE0E0EA83EB83EC83ED8317E035
:10045800173198F4E12FF0E0DE01169681D4AE0F43
:10046800BF1FE3D4AA81BB818C819D8158D4EA83C4
:10047800FB836C837D831F5FEBCFAA81BB818C815B
:100488009D81E0E1F0E060E070E0A7D4EA83FB83BF
:100498006C837D83CFD3DF01CB01E0E0F0E86DE032
:1004A80074E4F8D390D37E2E8F2EE8ECF0E0DE16BD
:1004B800EF0630F07092020280920302DD24EE24EF
:1004C800E6E2F2E0E715F80510F4F19A01C0F198B8
:1004D800A394EEE1AE1608F0AA24C7D4EF96EF96DF
:1004E8000895E0E8E0936100E0E0E0936100EFE365
:1004F800E4B9E0E0E5B9E1E2E7B9E0E0E8B9E0EA6B
:10050800EAB9E0E0EBB9E4BDE5BDE6BDE7BDE8BDAD
:10051800E1EBE0938000E1E0E0938100E0E0E0932C
:100528008500E0938400E0938700E0938600E093E1
:100538008900E0938800E0938B00E0938A00E093C1
:10054800B600E093B000E6E0E093B100EEE7E09398
:10055800B200E0E0E093B300E093B400E0936E00F3
:10056800E0936F00E1E0E0937000E0E0E093690061
:10057800EDBBE0936800E093C100E0E8E0BFE0E095
:10058800E0937F00E0937E00E0ECE0937C00E4E8F9
:10059800E0937A00E0E0E0937B00ECBDE093BC00E0
:1005A800789442D1AFEFB0E0DEDDAFEFB0E0CADD66
:1005B800AA24EEE1AE16D0F4EA2DA4E0B2E0F0E011
:1005C800CFD3AE0FBF1FE0E0F0E060E070E033D4BF
:1005D800EA2DACE7B2E0F0E0C3D3AE0FBF1FE0E016
:1005E800F0E060E070E027D4A394E3CFAA24A0ED64
:1005F800B7E0B2D2459AA4E6B0E0AED24598A4E6F8
:10060800B0E0AAD2459AA4E6B0E0A6D24598F29BFB
:1006180002C0F298D6DDB9DDF19902C0F09B07C09F
:10062800E4E69E1610F4459A01C0459801C0459825
:10063800EECFFFCFAA9312D40A8110E01830A0F4AD
:10064800E02FE078E03811F45D9A01C05D985F9A78
:100658008CE291E00197F1F75F988CE291E00197C5
:10066800F1F7000F1F5FEACF00D474C2F7D300E0A0
:1006780010E0183078F4000F5F9A8CE291E001974F
:10068800F1F74E990F5F5F988CE291E00197F1F7CF
:100698001F5FEFCFE02F099119910895AA9324972E
:1006A8001A93EF81E983EE81EA83ED81EB83EA8592
:1006B800F0E0E130A0E0FA0721F42898599A599A15
:1006C8000FC0E230A0E0FA0721F4289A5998599A05
:1006D80007C0E330A0E0FA0719F4289A599A599804
:1006E800E985EF73E987E068E98788E592E0019793
:1006F800F1F7A9859FDF88E592E00197F1F710E00F
:10070800E8851E1750F4E12FF0E0DE011196AE0FD8
:10071800BF1FAC918FDF1F5FF3CF88E592E0019791
:10072800F1F7289A599A599A18812B960895AA93FD
:1007380028971A9310E0143050F4E12FF0E0DE010E
:100748001596AE0FBF1FE0E0EC931F5FF4CFEB856B
:10075800F0E0E130A0E0FA0721F42898599A599A74
:100768000FC0E230A0E0FA0721F4289A5998599A64
:1007780007C0E330A0E0FA0719F4289A599A599863
:1007880088E592E00197F1F7EA85EF73EA87AA8591
:1007980051DF88E592E00197F1F710E0E9851E172F
:1007A80070F4E12FF0E0DE011596EA0FFB1FFF93CE
:1007B800EF935CDFAF91BF91EC931F5FEFCF88E5BC
:1007C80092E00197F1F7289A599A599AE0E0E9835B
:1007D800EA83EB83EC8310E0E9851E17F0F4A98126
:1007E800BA818B819C81E8E0AFD2E983FA836B837D
:1007F8007C83E12FF0E0DE011596AE0FBF1FEC9170
:10080800F0E0A981BA818B819C81AFD288D2E9833B
:10081800FA836B837C831F5FDFCFE981FA816B8169
:100828007C8118812C9608952497E1E0EA93E9E009
:10083800EA93E2E0EA93E0E0EA93ECE4EA93A0E0EA
:100848002DDFA8ECB0E088D1A8ECB0E085D12496E3
:100858000895AA9324971A9310E0143050F4E12FC6
:10086800F0E0DE011196AE0FBF1FE0E0EC931F5FD2
:10087800F4CFEF81E983EE81EA83ED81EB8310E029
:10088800E885F0E03197A12FB0E0AE17BF0764F418
:10089800E12FF0E0DE011196AE0FBF1FEC91EA9355
:1008A800A0E03FD11F5FECCFE12FF0E0DE01119611
:1008B800AE0FBF1FEC91EA93A1E033D118812996BE
:1008C8000895C8D251E010E000E030E0E091F40271
:1008D800EF5FE093F402E150A52F2ED25E2FA09196
:1008E800F402A93020F0E1E0E093F40251E0A09195
:1008F8000002B0910102E8EEF3E05CD22E2FF0E0A6
:10090800E950FD4F1081F09B08C0A091F502B0910D
:10091800F602A93CE0E0BE0708F402C0109101030A
:10092800E52FE12309F03062A0910002B0910102A5
:10093800E4E6F0E03FD2DF01EAE0F0E073D22E2FE8
:10094800F0E0E950FD4F1081F09B08C0A091F5023E
:10095800B091F602A93CE0E0BE0708F402C010918D
:100968000103E52FE12309F03064A0910002B09162
:100978000102EAE0F0E01ED2DF01EAE0F0E052D244
:100988002E2FF0E0E950FD4F10811160F09B08C058
:10099800A091F502B091F602A93CE0E0BE0708F488
:1009A80002C010910103E52FE12309F03068A091FE
:1009B8000002B0910102EAE0F0E034D22E2FF0E01C
:1009C800E950FD4F1081F09B08C0A091F502B0914D
:1009D800F602A93CE0E0BE0708F402C0109101034A
:1009E800E52FE12309F03061A0910202B0910302E2
:1009F800E8EEF3E0DFD12E2FF0E0E950FD4F108153
:100A0800F19B08C0A091F502B091F602A83CE0E085
:100A1800BE0708F002C010910103E52FE12309F099
:100A28003860A0910202B0910302E4E6F0E0C2D17E
:100A3800DF01EAE0F0E0F6D12E2FF0E0E950FD4FBB
:100A480010811160F19B08C0A091F502B091F602E7
:100A5800A83CE0E0BE0708F002C010910103E52FB2
:100A6800E12309F03460A0910202B0910302EAE0A8
:100A7800F0E0A0D1DF01EAE0F0E0D4D12E2FF0E0E1
:100A8800E950FD4F1081F19B08C0A091F502B0918B
:100A9800F602A83CE0E0BE0708F002C0109101038E
:100AA800E52FE12309F03260A0910202B091030220
:100AB800EAE0F0E0B7D12E2FF0E0E950FD4F1081C9
:100AC800F19B08C0A091F502B091F602A83CE0E0C5
:100AD800BE0708F002C010910103E52FE12309F0D9
:100AE8003160EFEFE51B5E2FE2E0EA933A935A9309
:100AF800A02FAFDEA5EFB2E0ED91FD913196FE9308
:100B0800EE93A091F502B091F602A139E1E0BE079B
:100B180028F0E0E0E093F502E093F602A2D12696F1
:100B28000895AA931A9310E0183070F4EA81E078D7
:100B3800E03811F42B9A01C02B98EA81EE0FEA8372
:100B48002D9A2D981F5FF0CFE981E03011F0409A7F
:100B58004098188123960895109639F080E797E118
:100B68000197F1F7A8951197C9F70895552342F40D
:100B7800503811F4E0FF04C03196691F791F6BF0FB
:100B880050E8572711F45F9373C05F3F31F0660F49
:100B9800000C57956795752F08955F9300200AF00C
:100BA80073C06CC050E8192E1522880F991F95271D
:100BB800550F879550E8072E0522660F771F752772
:100BC800550F67950895689401C0E8945F93F2DF24
:100BD800703818F07F3F08F44BC056E1571BAAF451
:100BE800519558300EF4593030F0EFEFFFEF6FEFBA
:100BF8007FE777F91AC077275523B9F0EE0FFF1F63
:100C0800661F771F5A95D1F710C07727583028F0FC
:100C1800EF2FF62F672F5850F9CF552331F07695DF
:100C28006795F795E7955A95D1F700200AF47CD097
:100C38005F910895689401C0E894309760407040CF
:100C4800B1F0002426F0772312F400946DD0172E0B
:100C58007EE1112032F07A95EE0FFF1F661F111CFE
:100C6800F9CFEF2FF62F612D5F938ADF5F910895FB
:100C7800EE27FF27662777275F910895EFEFFFEFAD
:100C88006FE77FEF5F910895EFEFFFEF6FE77FE783
:100C98005F9108955F9386DF703821F411200AF47C
:100CA800EDCFF2CF903809F4E3CF01240894970BE5
:100CB8001BF4D4F30020F3CF792F1F932F933F9386
:100CC8004F9311241127222733274427552790E2D1
:100CD800AE17BF078607410730F0AE1BBF0B860B68
:100CE800410B089401C08894551F221F331F111C03
:100CF800AA1FBB1F881F441F9A9551F7F901612D40
:100D08004F913F912F911F91662332F0550FEE1F9F
:100D1800FF1F661F7A9543F229DF5F910895EA0F56
:100D2800FB1F681F791F0895F09560957095E195F0
:100D3800FF4F6F4F7F4F0895EE230E2EEA2F19F0C5
:100D4800EE0F0A94E9F70895EE230E2EFD01BC017B
:100D580031F0EE0FFF1F661F771F0A94D1F7089531
:100D6800EE0FFF1FEE0FFF1F08956F2F660F660B24
:100D7800762F08957A9F702D6B9F700DF89F700DD8
:100D8800E99F700D6A9F602D710DFB9F600D711DAD
:100D9800E89F600D711D8827FA9FF02D610D781F5F
:100DA800EB9FF00D611D781FEA9FE02DF10D681F84
:100DB800781F08950024112490E1AA0FBB1F001C7E
:100DC800111C0E1A1F0A18F40E0E1F1E01C0A16076
:100DD8009A9599F7FD01D00108953F934F935F933A
:100DE800002411244427552730E2AA0FBB1F881F6F
:100DF800991F001C111C441F551F0E1A1F0A460B71
:100E0800570B28F40E0E1F1E461F571F01C0A16066
:100E18003A9559F7FD01BC01D001CA015F914F9184
:100E28003F910895C7DFFD010895ED91FD916D9102
:100E38007C9113970895ED93FD936D937C9308959A
:100E4800A083B183828393830895EA17FB07680719
:100E5800790708955A934A933A932A931A930A93CF
:100E680008955D814C813B812A811981088108950B
:00000001FF
