:0800000029C0FECFFDCFFCCFAB
:10000800FBCFFACFF9CFF8CFF7CF69C0F5CFF4CF50
:10001800F3CFF2CFF1CFF0CFEFCFEECFEDCFECCFE4
:10002800EBCFEACFE9CFE8CFE7CFE6CF000100007A
:1000380000000100EE88B6BCD87C7EA8FEFC050056
:100048000A0034000A00F6023C000000F894EE278B
:10005800EFBBF1E0F5BFE5BF8DE0A2E0BB27ED9374
:100068008A95E9F780E094E0A0E0B1E0ED9301978C
:10007800E9F7E6E4F0E085919591009761F0A591A4
:10008800B59105901590BF01F00105900D9201976B
:10009800E1F7FB01F0CFE0E0EEBBEFEFEDBFE4E00E
:1000A800EEBFC0E0D2E0EDC2AA93E881E06CE09335
:1000B8007C0080E58A95F1F7E0917A00E064E093AE
:1000C8007A00E0917A00E071E1F3E0917A00E06172
:1000D800E0937A00E0917800F09179004FC00A929D
:1000E8001A92FA926A937A938A939A93AA93BA93F2
:1000F800EA93FA93EFB7EA93EEE7E093B200E8ECFD
:10010800F0E0DE16EF0620F4E1E0F0E0DE0EEF1E90
:1001180041D49394E8ECE91508F49924F29AE9910A
:10012800EFBFF991E991B991A99199918991799143
:100138006991F990199009901895AA93A881A2300D
:1001480020F4E0E0E093890006C0A881E8E02CD61E
:10015800E0938900E881E093880010C0AA93A88101
:10016800A23020F4E0E0E0938B0006C0A881E8E02C
:100178001BD6E0938B00E881E0938A0021960895CE
:10018800A5D6A1E091DF8F01D80188279927EFEF45
:10019800F0E060E070E026D6DF01CB01EFEFF3E09E
:1001A80060E070E052D6CE2EAC2DD8DFAC2DC5DF86
:1001B80039C3EF97ED978AD610E000E0EA2DA4E066
:1001C800B2E0F0E005D6EA0FFB1FFF93EF93E1E002
:1001D800EA93E7E1EA93A3E028D3AF91BF9163D60E
:1001E800AAE0B0E0E9D410E01E31A0F4E12FF0E07D
:1001F800DE011696EDD5EA0FFB1F0F01E12FA4E0F3
:10020800B2E0F0E0E5D5AE0FBF1F47D6D0014BD620
:100218001F5FEACF10E01E3108F04CC0012F0E31ED
:1002280008F046C0E12FF0E0DE011696D1D5AE0FFA
:10023800BF1F33D67F936F93FF93EF93E02FF0E0C8
:10024800DE011696C5D5AE0FBF1F27D6AF91BF9159
:100258008F919F9132D650F5E12FF0E0DE0116968E
:10026800B7D5AE0FBF1F19D6EA83FB836C837D8396
:10027800E12FF0E0DE011696ABD5EA0FFB1F0F0168
:10028800E02FF0E0DE011696A3D5AE0FBF1F05D60E
:10029800D00109D6E02FF0E0DE01169699D5EA0FD5
:1002A800FB1FAA81BB818C819D8102D60F5FB7CFCE
:1002B8001F5FB1CFE0E0EA83EB83EC83ED8317E0C7
:1002C800173198F4E12FF0E0DE01169681D5AE0FD4
:1002D800BF1FE3D5AA81BB818C819D8150D5EA835C
:1002E800FB836C837D831F5FEBCFAA81BB818C81ED
:1002F8009D81E0E1F0E060E070E0A7D5EA83FB8350
:100308006C837D83C7D4DF01CB01E0E0F8EC6FE9B3
:1003180075E4F0D488D45E2E6F2EE8E2F0E05E1625
:100328006F0660F4EA81FB816C817D81B3D4DF01C3
:10033800CB01E7ECF3EC6BEA75E4CBC0E0E5F0E069
:100348005E166F0660F4EA81FB816C817D81A2D420
:10035800DF01CB01E7E4F2EC6CEA75E4BAC0E8E748
:10036800F0E05E166F0660F4EA81FB816C817D81A6
:1003780091D4DF01CB01E7EAFDE66DEA75E4A9C097
:10038800E0EAF0E05E166F0660F4EA81FB816C81BA
:100398007D8180D4DF01CB01E0E9FDE66CEA75E4FC
:1003A80098C0E8ECF0E05E166F0660F4EA81FB8125
:1003B8006C817D816FD4DF01CB01E6EDF8E26CEA58
:1003C80075E487C0E0EFF0E05E166F0660F4EA813E
:1003D800FB816C817D815ED4DF01CB01EAE4FFE71C
:1003E8006CEA75E476C0E8E1F1E05E166F0660F449
:1003F800EA81FB816C817D814DD4DF01CB01E9E687
:10040800FFEC6BEA75E465C0E0E4F1E05E166F06A8
:1004180060F4EA81FB816C817D813CD4DF01CB01F2
:10042800E7E5FAE76AEA75E454C0E8E6F1E05E1643
:100438006F0660F4EA81FB816C817D812BD4DF013A
:10044800CB01E7E0F6E369EA75E443C0E0E9F1E0EF
:100458005E166F0660F4EA81FB816C817D811AD497
:10046800DF01CB01E2E1F3E068EA75E432C0E8EBD2
:10047800F1E05E166F0660F4EA81FB816C817D8194
:1004880009D4DF01CB01EFE0F5E367EA75E421C0A9
:10049800E0EEF1E05E166F0660F4EA81FB816C81A4
:1004A8007D81F8D3DF01CB01EAECF6EE65EA75E46D
:1004B80010C0E8E0F2E05E166F0678F4EA81FB818E
:1004C8006C817D81E7D3DF01CB01EEEDFEED62EAC1
:1004D80075E410D4A8D35E2E6F2EE8ECF0E0DE169B
:1004E800EF0620F05092000260920102EA2DACE77C
:1004F800B2E0F0E06DD4EA0FFB1FFF93EF93E1E069
:10050800EA93E6E1EA93A3E090D1AF91BF91CBD40F
:10051800AAE0B0E051D310E01E31A0F4E12FF0E0E2
:10052800DE01169655D4EA0FFB1F0F01E12FACE749
:10053800B2E0F0E04DD4AE0FBF1FAFD4D001B3D4BA
:100548001F5FEACF10E01E3108F04CC0012F0E31BA
:1005580008F046C0E12FF0E0DE01169639D4AE0F60
:10056800BF1F9BD47F936F93FF93EF93E02FF0E02F
:10057800DE0116962DD4AE0FBF1F8FD4AF91BF9159
:100588008F919F919AD450F5E12FF0E0DE011696F5
:100598001FD4AE0FBF1F81D4EA83FB836C837D8396
:1005A800E12FF0E0DE01169613D4EA0FFB1F0F01CE
:1005B800E02FF0E0DE0116960BD4AE0FBF1F6DD40E
:1005C800D00171D4E02FF0E0DE01169601D4EA0FD5
:1005D800FB1FAA81BB818C819D816AD40F5FB7CF35
:1005E8001F5FB1CFE0E0EA83EB83EC83ED8317E094
:1005F800173198F4E12FF0E0DE011696E9D3AE0F3B
:10060800BF1F4BD4AA81BB818C819D81B8D3EA835B
:10061800FB836C837D831F5FEBCFAA81BB818C81B9
:100628009D81E0E1F0E060E070E00FD4EA83FB83B5
:100638006C837D832FD3DF01CB01E0E0F0E86DE030
:1006480074E458D3F0D27E2E8F2EE8ECF0E0DE165C
:10065800EF0630F07092020280920302DD24EE244D
:10066800E6E2F2E0E715F80510F4F19A01C0F19816
:10067800A394EEE1AE1608F0AA242FD4EF96EF96D5
:100688000895E0E8E0936100E0E0E0936100EFE3C3
:10069800E4B9E0E0E5B9E1E2E7B9E0E0E8B9E0EAC9
:1006A800EAB9E0E0EBB9E4BDE5BDE6BDE7BDE8BD0C
:1006B800E1EBE0938000E1E0E0938100E0E0E0938B
:1006C8008500E0938400E0938700E0938600E09340
:1006D8008900E0938800E0938B00E0938A00E09320
:1006E800B600E093B000E6E0E093B100EEE7E093F7
:1006F800B200E0E0E093B300E093B400E0936E0052
:10070800E0936F00E1E0E0937000E0E0E0936900BF
:10071800EDBBE0936800E093C100E0E8E0BFE0E0F3
:10072800E0937F00E0937E00E0ECE0937C00E4E857
:10073800E0937A00E0E0E0937B00ECBDE093BC003E
:100748007894AA24EEE1AE16D0F4EA2DA4E0B2E043
:10075800F0E03ED3AE0FBF1FE0E0F0E060E070E0F5
:10076800A2D3EA2DACE7B2E0F0E032D3AE0FBF1F60
:10077800E0E0F0E060E070E096D3A394E3CFAA2431
:10078800A8EBBBE019D2459AA4E6B0E015D245988B
:10079800A4E6B0E011D2459AA4E6B0E00DD245989F
:1007A800F29B02C0F29805DDEBDCF19B07C0E4E6A2
:1007B8009E1610F4459A01C0459801C04598F0CF9F
:1007C800FFCFAA9383D30A8110E01830A0F4E02F5A
:1007D800E078E03811F45D9A01C05D985F9A8CE288
:1007E80091E00197F1F75F988CE291E00197F1F7BA
:1007F800000F1F5FEACF71D3DDC168D300E010E0BE
:10080800183078F4000F5F9A8CE291E00197F1F7C5
:100818004E990F5F5F988CE291E00197F1F71F5FA7
:10082800EFCFE02F099119910895AA9328971A9369
:1008380010E0143050F4E12FF0E0DE011596AE0F11
:10084800BF1FE0E0EC931F5FF4CFEB85F0E0E130F1
:10085800A0E0FA0721F42898599A599A0FC0E23073
:10086800A0E0FA0721F4289A5998599A07C0E3306A
:10087800A0E0FA0719F4289A599A599888E592E05D
:100888000197F1F7EA85EF73EA87AA859ADF88E589
:1008980092E00197F1F710E0E9851E1770F4E12F57
:1008A800F0E0DE011596EA0FFB1FFF93EF93A5DF3B
:1008B800AF91BF91EC931F5FEFCF88E592E001976E
:1008C800F1F7289A599A599AE0E0E983EA83EB8389
:1008D800EC8310E0E9851E17F0F4A981BA818B81B9
:1008E8009C81E8E069D2E983FA836B837C83E12FFA
:1008F800F0E0DE011596AE0FBF1FEC91F0E0A98184
:10090800BA818B819C8169D23AD2E983FA836B835D
:100918007C831F5FDFCFE981FA816B817C8118813D
:100928002C960895AA9324971A9310E0143050F443
:10093800E12FF0E0DE011196AE0FBF1FE0E0EC936F
:100948001F5FF4CFEF81E983EE81EA83ED81EB83CA
:1009580010E0E885F0E03197A12FB0E0AE17BF07AF
:1009680064F4E12FF0E0DE011196AE0FBF1FEC91A9
:10097800EA93A0E006D11F5FECCFE12FF0E0DE01A3
:100988001196AE0FBF1FEC91EA93A1E0FAD018813F
:100998002996089597D251E010E000E030E0B39432
:1009A800EB2DE150A52FF8D15E2FE8E0EB1518F4F8
:1009B800E1E0BE2E51E0A0910002B0910102E8EE04
:1009C800F3E030D22E2FF0E0EA50FD4F1081E52FF2
:1009D800E12309F03062A0910002B0910102E4E63F
:1009E800F0E020D2DF01EAE0F0E054D22E2FF0E070
:1009F800EA50FD4F1081E52FE12309F03064A09102
:100A08000002B0910102EAE0F0E00CD2DF01EAE076
:100A1800F0E040D22E2FF0E0EA50FD4F1081116037
:100A2800E52FE12309F03068A0910002B09101029E
:100A3800EAE0F0E02FD22E2FF0E0EA50FD4F1081CF
:100A4800E52FE12309F03061A0910202B091030281
:100A5800E8EEF3E0E7D12E2FF0E0EA50FD4F1081E9
:100A6800F19B08C0A091F402B091F502A83CE0E027
:100A7800BE0708F002C010910003E52FE12309F03A
:100A88003860A0910202B0910302E4E6F0E0CAD116
:100A9800DF01EAE0F0E0FED12E2FF0E0EA50FD4F52
:100AA80010811160F19B08C0A091F402B091F50289
:100AB800A83CE0E0BE0708F002C010910003E52F53
:100AC800E12309F03460A0910202B0910302EAE048
:100AD800F0E0A8D1DF01EAE0F0E0DCD12E2FF0E071
:100AE800EA50FD4F1081F19B08C0A091F402B0912B
:100AF800F502A83CE0E0BE0708F002C01091000330
:100B0800E52FE12309F03260A0910202B0910302BF
:100B1800EAE0F0E0BFD12E2FF0E0EA50FD4F10815F
:100B2800F19B08C0A091F402B091F502A83CE0E066
:100B3800BE0708F002C010910003E52FE12309F079
:100B48003160EFEFE51B5E2FE2E0EA933A935A93A8
:100B5800A02FE8DEA4EFB2E0ED91FD913196FE936F
:100B6800EE93A091F402B091F502A139E1E0BE073D
:100B780028F0E0E0E093F402E093F502AAD126968B
:100B88000895AA931A9310E0183070F4EA81E07877
:100B9800E03811F42B9A01C02B98EA81EE0FEA8312
:100BA8002D9A2D981F5FF0CFE981E03011F0409A1F
:100BB8004098188123960895109639F080E797E1B8
:100BC8000197F1F7A8951197C9F70895552342F4AD
:100BD800503811F4E0FF04C03196691F791F6BF09B
:100BE80050E8572711F45F9373C05F3F31F0660FE9
:100BF800000C57956795752F08955F9300200AF0AC
:100C080073C06CC050E8192E1522880F991F9527BC
:100C1800550F879550E8072E0522660F771F752711
:100C2800550F67950895689401C0E8945F93F2DFC3
:100C3800703818F07F3F08F44BC056E1571BAAF4F0
:100C4800519558300EF4593030F0EFEFFFEF6FEF59
:100C58007FE777F91AC077275523B9F0EE0FFF1F02
:100C6800661F771F5A95D1F710C07727583028F09C
:100C7800EF2FF62F672F5850F9CF552331F076957F
:100C88006795F795E7955A95D1F700200AF47CD037
:100C98005F910895689401C0E8943097604070406F
:100CA800B1F0002426F0772312F400946DD0172EAB
:100CB8007EE1112032F07A95EE0FFF1F661F111C9E
:100CC800F9CFEF2FF62F612D5F938ADF5F9108959B
:100CD800EE27FF27662777275F910895EFEFFFEF4D
:100CE8006FE77FEF5F910895EFEFFFEF6FE77FE723
:100CF8005F9108955F9386DF703821F411200AF41C
:100D0800EDCFF2CF903809F4E3CF01240894970B84
:100D18001BF4D4F30020F3CF792F1F932F933F9325
:100D28004F9311241127222733274427552790E270
:100D3800AE17BF078607410730F0AE1BBF0B860B07
:100D4800410B089401C08894551F221F331F111CA2
:100D5800AA1FBB1F881F441F9A9551F7F901612DDF
:100D68004F913F912F911F91662332F0550FEE1F3F
:100D7800FF1F661F7A9543F229DF5F910895EA0FF6
:100D8800FB1F681F791F0895F09560957095E19590
:100D9800FF4F6F4F7F4F0895EE230E2EEA2F19F065
:100DA800EE0F0A94E9F70895EE230E2EEA2F19F0B4
:100DB800E6950A94E9F70895EE230E2EFD01BC018D
:100DC80031F0EE0FFF1F661F771F0A94D1F70895C1
:100DD800EE0FFF1FEE0FFF1F08956F2F660F660BB4
:100DE800762F08957A9F702D6B9F700DF89F700D68
:100DF800E99F700D6A9F602D710DFB9F600D711D3D
:100E0800E89F600D711D8827FA9FF02D610D781FEE
:100E1800EB9FF00D611D781FEA9FE02DF10D681F13
:100E2800781F08950024112490E1AA0FBB1F001C0D
:100E3800111C0E1A1F0A18F40E0E1F1E01C0A16005
:100E48009A9599F7FD01D00108953F934F935F93C9
:100E5800002411244427552730E2AA0FBB1F881FFE
:100E6800991F001C111C441F551F0E1A1F0A460B00
:100E7800570B28F40E0E1F1E461F571F01C0A160F6
:100E88003A9559F7FD01BC01D001CA015F914F9114
:100E98003F910895C7DFFD010895ED91FD916D9192
:100EA8007C9113970895ED93FD936D937C9308952A
:100EB800A083B183828393830895EA17FB076807A9
:100EC800790708955A934A933A932A931A930A935F
:100ED80008955D814C813B812A811981088108959B
:00000001FF
